:020000040800F2
:100000000040002079020008CB020008D902000855
:10001000DF020008E5020008EB0200080000000013
:10002000000000000000000000000000F1020008D5
:10003000FF020008000000000D0300081B03000879
:10004000C9020008C9020008C9020008C902000864
:10005000AD030008C90200082703000833030008A5
:10006000410300084F030008C9020008C902000844
:10007000C9020008C9020008C9020008C902000834
:10008000C9020008C9020008C9020008C902000824
:10009000C9020008C9020008C9020008C902000814
:1000A000C9020008C9020008C9020008C902000804
:1000B000C9020008C9020008C9020008C9020008F4
:1000C000C9020008C9020008C9020008C9020008E4
:1000D000C9020008A1030008C9020008C9020008FB
:1000E000C9020008C9020008C9020008C9020008C4
:1000F000C9020008C9020008C9020008C9020008B4
:10010000C9020008C9020008C9020008C9020008A3
:10011000C9020008C9020008C9020008C902000893
:100120005D030008C9020008C9020008C9020008EE
:10013000C9020008C9020008C9020008C902000873
:10014000C9020008C9020008C9020008C902000863
:1001500089030008C902000895030008C9020008C5
:10016000C9020008C9020008C9020008C902000843
:10017000C9020008C9020008C9020008C902000833
:10018000C9020008C9020008C9020008C902000823
:10019000C9020008C9020008C9020008C902000813
:0C01A000C9020008C9020008C9020008DA
:1001AC0010B5054C237833B9044B13B10448AFF3A5
:1001BC0000800123237010BDC4010020000000004A
:1001CC00681C000808B5034B1BB103490348AFF387
:1001DC00008008BD00000000C8010020681C000859
:1001EC0080B582B000AF00237B6001F035F901F0DF
:1001FC008DFC62B600BF00F05AFB00F05FFB00F014
:10020C006FFB00F073FB01F073FB00F0DDFB01F002
:10021C0023F9032001F06EF901F0BAF9002001F086
:10022C00E9F940F6B83001F0FFF801F0CFF90346D8
:10023C001A460D4B1A700C4B1B78DBB2012B05D1F7
:10024C00002001F0FFF900F0E5FB0CE000F0D0FA23
:10025C0078607B68032B02D87B68002B00D1FEE70B
:10026C00786800F039FFFEE704020020DFF834D094
:10027C00002103E00C4B5B58435004310B480C4BF2
:10028C0042189A42F6D30B4A02E0002342F8043B90
:10029C00094B9A42F9D300F089F801F0BBFCFFF747
:1002AC009FFF7047004000208820000800000020BD
:1002BC00C4010020C4010020B8040020FEE780B473
:1002CC0000AF00BFBD465DF8047B704780B400AF43
:1002DC00FEE780B400AFFEE780B400AFFEE780B469
:1002EC0000AFFEE780B400AF00BFBD465DF8047BF5
:1002FC00704780B400AF00BFBD465DF8047B70470B
:10030C0080B400AF00BFBD465DF8047B704780B57C
:10031C0000AF01F07BF800BF80BD80B500AF01F0ED
:10032C008FFA00BF80BD80B400AF00BFBD465DF842
:10033C00047B704780B400AF00BFBD465DF8047B02
:10034C00704780B400AF00BFBD465DF8047B7047BA
:10035C0080B500AF084B1B6803F02003202B06D19F
:10036C00002001F04BFA044B20229A6002E002209C
:10037C0001F020FA00BF80BD0064024080B500AFE0
:10038C0000F0EEFB00BF80BD80B500AF00F0D4FBE9
:10039C0000BF80BD80B500AF00F0B4FB00BF80BDD6
:1003AC0080B500AF00F01EFC00BF80BD80B500AF73
:1003BC00164BD3F88830154A43F47003C2F88830D2
:1003CC00134B1B68124A43F001031360104B0022BD
:1003DC009A600F4B1B680E4A23F0847323F480330E
:1003EC0013600B4B0B4A5A60094B1B68084A23F4E9
:1003FC0080231360064B0022DA6000F08FF8034B69
:10040C004FF000629A6000BF80BD00BF00ED00E0BD
:10041C00003802401030002480B487B000AF0023B5
:10042C003B6100237B610223FB600023BB60022342
:10043C007B60354B9B6803F00C033B613B69082BDD
:10044C0011D03B69082B44D83B69002B03D03B6986
:10045C00042B04D03DE02D4B2D4A1A603DE02B4B74
:10046C002C4A1A6039E0284B5B689B0D03F00103A2
:10047C00BB60254B5B6803F03F037B60BB68002BC4
:10048C000CD0244A7B68B2FBF3F31F4A52689209E2
:10049C00C2F3080202FB03F37B610BE01C4A7B688E
:1004AC00B2FBF3F3184A52689209C2F3080202FB3A
:1004BC0003F37B61144B5B681B0C03F003030133E8
:1004CC005B00FB607A69FB68B2FBF3F30F4A1360C5
:1004DC0003E00E4B0E4A1A6000BF0B4B9B681B09C6
:1004EC0003F00F030C4AD35CDBB23B61074B1A6879
:1004FC003B6922FA03F3054A136000BF1C37BD4663
:10050C005DF8047B704700BF0038024000000020FB
:10051C000024F40000127A000400002080B483B0A0
:10052C0000AF00237B6000233B60364B1B68354AD1
:10053C0043F480331360334B1B6803F400333B608C
:10054C007B6801337B603B68002B03D17B68B3F580
:10055C00A06FF0D12B4B1B6803F40033002B02D09F
:10056C0001233B6001E000233B603B68012B02D17F
:10057C00244B254A5A60234B1B6C224A43F0805370
:10058C001364224B1B68214A43F4404313601D4BF8
:10059C001C4A9B6893601B4B9B681A4A43F40043AC
:1005AC009360184B9B68174A43F4A0539360154B08
:1005BC001B68144A43F08073136000BF114B1B6817
:1005CC0003F00073002BF9D0114B40F205721A6046
:1005DC000C4B9B680B4A23F003039360094B9B68FD
:1005EC00084A43F00203936000BF064B9B6803F07C
:1005FC000C03082BF9D100BF00BF0C37BD465DF8CA
:10060C00047B704700380240085A400700700040D5
:10061C00003C024080B400AF074B4FF474621A6088
:10062C00064B1B68054A43F00103136000BFBD462F
:10063C005DF8047B704700BF04640240886402408C
:10064C0080B586B000AF78600023FB750023BB75C6
:10065C00324BFB6000233B61314B324A5A60304BCA
:10066C00314A5A604CE0314B1B68092B05D90E20DE
:10067C0000F05EF82D4B00221A6000BF284BDB689F
:10068C0003F48033002BF9D1284B1B689A00FB68CC
:10069C0013441B683B613B69B3F1FF3F2BD100BF97
:1006AC001F4BDB6803F48033002BF9D11C4B1B6907
:1006BC001B4A43F0010313611C4B1B689A00FB6837
:1006CC0013441A467B68136000BF154BDB6803F4B8
:1006DC008033002BF9D1124B1B69114A23F0010313
:1006EC001361124B1B680133104A13600123BB7555
:1006FC000123FB7504E00D4B1B6801330B4A13609F
:10070C00BB7D002BAFD0064B1B69054A43F0004361
:10071C001361FB7D18461837BD4680BD008010085C
:10072C00003C024023016745AB89EFCDB4040020A7
:10073C0080B485B000AF78600023FB730023BB60EE
:10074C00264B1B69254A43F000431361234B244A73
:10075C005A60224B234A5A6000BF204BDB6803F4DB
:10076C008033002BF9D11D4B1B691C4A43F002034B
:10077C0013617B680B2B02D97B6804337B60174BAE
:10078C001A697B68DB00DBB2144913430B61134B12
:10079C001B69124A43F48033136100BF0F4BDB68B3
:1007AC0003F48033002BF9D10C4B1B690B4A23F05B
:1007BC00020313610C4B00221A600C4B1B68BB60CC
:1007CC00BB68B3F1FF3F01D10123FB73FB7B1846E0
:1007DC001437BD465DF8047B704700BF003C0240F7
:1007EC0023016745AB89EFCDB404002000801008CD
:1007FC0080B586B000AF264B7B600023FB740023D2
:10080C007B610023FB6000BF224BDB6803F4803369
:10081C00002BF9D131E0204B1B68092B05D90E2098
:10082C00FFF786FF1C4B00221A601B4B1B689A00BB
:10083C007B681344043B1B687B61174B1B689A0055
:10084C007B6813441B68FB607B69B3F1FF3F08D1E5
:10085C00FB68B3F1FF3F04D100237B610123FB74E0
:10086C000EE0FB68B3F1FF3F02D10123FB7407E0FC
:10087C00094B1B680133084A1360FB7C002BCAD060
:10088C000023FB727B6918461837BD4680BD00BF3C
:10089C0000801008003C0240B404002080B400AF7B
:1008AC004FF0FF331846BD465DF8047B704780B5AA
:1008BC0000AF00F0FFFF00BF80BD000080B400AFB0
:1008CC00054B10225A64054B40F20D321A8100BFC1
:1008DC00BD465DF8047B70470038024000100140B3
:1008EC0080B500AF01F03EF800BF80BD80B400AF12
:1008FC00314B1B6B304A43F4800313632F4B1B6843
:10090C0003F00103012B0CD12C4B1B682B4A23F059
:10091C000103136000BF294B1B6803F00103012B7B
:10092C00F9D0264B1B68254A23F060631360234BD8
:10093C001B68224A43F000631360204B1B681F4A5C
:10094C0043F4403313601D4B1B681C4A23F0C00357
:10095C0013601A4B1B68194A23F4C0431360174BDE
:10096C001B68164A23F4C0531360144B5B69134A7B
:10097C0043F004035361114B5B69104A43F00303CA
:10098C0053610E4B1B680D4A43F4806313600B4B91
:10099C001B680A4A43F010031360084B084A9A601C
:1009AC00064B084ADA60054B80225A6000BFBD46F0
:1009BC005DF8047B704700BF003802408864024039
:1009CC00041001403004002080B400AF0E4B0F4ADD
:1009DC005A600D4B0E4A5A600B4B1B690A4A23F4A2
:1009EC0040731361084B1B69074A43F4007313618E
:1009FC00054B1B69044A43F00043136100BFBD461D
:100A0C005DF8047B704700BF003C02402301674542
:100A1C00AB89EFCD80B500AF2B4B1B78002B02D0F0
:100A2C00012B40D04EE02F21284800F019FF1E2149
:100A3C00274800F015FF2421264800F011FF2F2134
:100A4C00224800F00DFF0E21234800F009FF102171
:100A5C00224800F005FF0E21214800F001FF0D2176
:100A6C00204800F0FDFE10211F4800F0F9FE142173
:100A7C001E4800F0F5FE1B211D4800F0F1FE172169
:100A8C001C4800F0EDFE15211B4800F0E9FE10217A
:100A9C001A4800F0E5FE2F210C4800F0E1FE0A4B4D
:100AAC0001221A700EE0164B1B78002B06D000F0BA
:100ABC001DF900F09FF8124B00221A70024B012214
:100ACC001A7000BF00BF80BDED010020180100208E
:100ADC001400002034000020580000206800002082
:100AEC00780000208800002098000020A80000203A
:100AFC00BC000020D8000020F000002008010020DD
:100B0C002004002080B400AF094B1B889BB203F07B
:100B1C001003102B07D1064B9B88064B1B68054A0C
:100B2C0023F00103136000BFBD465DF8047B7047E2
:100B3C00001001408864024080B400AF074B5B6832
:100B4C0003F00063B3F1006F03D1044B4FF07462F8
:100B5C00DA6000BFBD465DF8047B7047006402405C
:100B6C0080B483B000AF1A4B5B6803F40063B3F539
:100B7C00006F27D1174B5B68DAB26FF07F039B1ABB
:100B8C00DAB2154B1A7000237B600BE0134A7B68BA
:100B9C0013441978124A7B6813440A461A707B680E
:100BAC0001337B600C4B1B781A467B689342EDDB60
:100BBC00074B4FF47462DA60064B1B68054A43F02E
:100BCC000103136000BF0C37BD465DF8047B704712
:100BDC00006402408864024020040020300400209D
:100BEC008C02002080B400AF00BFBD465DF8047BD2
:100BFC007047000080B500AF344BDB6803F0800316
:100C0C00802B12D10521324800F02AFE1B213148DD
:100C1C0000F026FE2F21304800F022FE2B4BDB6823
:100C2C002A4A43F08003D3604EE0284BDB6803F084
:100C3C004003402B12D10521254800F011FE1E2146
:100C4C00264800F00DFE2F21234800F009FE1F4B13
:100C5C00DB681E4A43F04003D36035E01B4BDB6876
:100C6C0003F02003202B12D10521194800F0F8FDC8
:100C7C001C211B4800F0F4FD2F21174800F0F0FD5B
:100C8C00124BDB68114A43F02003D3601CE00F4B7E
:100C9C00DB6803F01003102B12D105210C4800F077
:100CAC00DFFD17210F4800F0DBFD2F210A4800F073
:100CBC00D7FD064BDB68054A43F01003D36003E015
:100CCC000421094800F0CCFD00BF80BD003C02406F
:100CDC00BC01002048010020180100206401002004
:100CEC0084010020A0010020B801002080B588B04C
:100CFC0000AF00237B6100233B6100237B6000235A
:100D0C00FB618F4B1B78013B092B00F2CC8101A2BC
:100D1C0052F823F0490D0008570D0008650D000826
:100D2C00CF0D0008F50D0008590E0008C70E00087D
:100D3C00310F00083F0F0008690F0008814B1B6939
:100D4C00804A43F000431361AEE17E4B7E4A5A6009
:100D5C007C4B7E4A5A60A7E100BF7A4BDB6803F4F8
:100D6C008033002BF9D1774B1B69764A43F0010392
:100D7C001361774B1B687B610023FB7617E0FB7ECE
:100D8C009B0005336E4A13441B683B61FB7E9A0043
:100D9C007B6913441A463B69136000BF694BDB68DF
:100DAC0003F48033002BF9D1FB7E0133FB76FB7E01
:100DBC00032BE4D9634B1B69624A23F001031361D3
:100DCC0072E100BF5F4BDB6803F48033002BF9D179
:100DDC005F4B1B687B617B691B687B603B1D04213F
:100DEC00184600F03DFD5FE100BF564BDB6803F495
:100DFC008033002BF9D1534B1B69524A43F0020349
:100E0C0013614F4B5B78FB61FB690B2B02D9FB69C0
:100E1C000433FB614B4B1A69FB69DB00DBB24949BC
:100E2C0013430B61474B1B69464A43F480331361F0
:100E3C0000BF444BDB6803F48033002BF9D1414BEA
:100E4C001B69404A23F0020313612DE100BF3D4BA7
:100E5C00DB6803F48033002BF9D1394B5B78FB61F1
:100E6C00FB690B2B0FD9FB690C3BFB61354B9B6969
:100E7C000121FA6901FA02F21204D2431146314AF5
:100E8C000B4093610BE02F4B5B690121FA6901FA6E
:100E9C0002F21204D24311462A4A0B405361294BE9
:100EAC005B69284A43F00203536100BF254BDB68A2
:100EBC0003F48033002BF9D1F6E000BF214BDB6843
:100ECC0003F48033002BF9D11D4B5B78FB61FB697C
:100EDC000B2B0ED9FB690C3BFB611A4B9B69012157
:100EEC00FA6901FA02F212041146164A0B43936195
:100EFC000AE0144B5B690121FA6901FA02F212044F
:100F0C001146104A0B4353610E4B5B690D4A43F07B
:100F1C000203536100BF0B4BDB6803F48033002BDF
:100F2C00F9D1C1E0074B0B4A9A60064B0A4A9A600A
:100F3C00BAE0044B5B69034A43F001035361B3E02D
:100F4C008C020020003C024023016745AB89EFCDA9
:100F5C008D0200203B2A19087F6E5D4C544B1B6898
:100F6C007B617B691B683B613B690521184600F07E
:100F7C0077FC7B690521184600F072FC3B6903F095
:100F8C000053002B00F08A8072B600BF494B1B69DE
:100F9C00484A43F4800343F001031361454B00229C
:100FAC001A61444B10225A62424B00225A62414B46
:100FBC001B68404A43F00103136000BF3D4B1B68A4
:100FCC0003F00203022BF9D13A4B1B68394A43F068
:100FDC0080031360374B00229A6000BF354B9B682F
:100FEC0003F00C03002BF9D1324B1B68314A23F46C
:100FFC005023136000BF2F4B1B6803F40033002BEE
:10100C00F9D12C4B1B682B4A23F08073136000BF63
:10101C00284B1B6803F00073002BF9D1254B264A93
:10102C005A60244B254AC3F88420224B234AC3F828
:10103C008820204B0022DA601E4B5B6F1D4A23F088
:10104C00010353671B4B5B6F1A4A23F08073536782
:10105C001B4B1C4A1A601C4B00221A601A4B0022B4
:10106C005A60194B00229A607B69184A934208D047
:10107C00BFF35F8F00BF164A7B699360BFF34F8F3E
:10108C0000BF7B6904331B68FB603B69BB60BB68BA
:10109C0083F3088800BFFB68984705E005210D48DD
:1010AC0000F0DEFB00E000BF00BF2037BD4680BD76
:1010BC008D02002000380240103000040030002463
:1010CC00000000200024F40010E000E00000FF1FEE
:1010DC0000ED00E0BC01002080B588B000AF786066
:1010EC000023BB617B68032B0FD07B68032B0FD8CD
:1010FC007B68012B03D07B68022B03D008E0564B96
:10110C00FB6105E0554BFB6102E0554BFB6100BFF9
:10111C00FB697B61F86900F0B3F8B861BB69002B1F
:10112C0003D1786800F0DAF8FEE77B699B681A68EF
:10113C007B695B691A407B695B699A4240F08880E5
:10114C0072B600BF474B1B69464A43F4800343F019
:10115C0001031361434B00221A61424B10225A6265
:10116C00404B00225A623F4B1B683E4A43F001033E
:10117C00136000BF3B4B1B6803F00203022BF9D139
:10118C00384B1B68374A43F080031360354B002201
:10119C009A6000BF334B9B6803F00C03002BF9D112
:1011AC00304B1B682F4A23F45023136000BF2D4B88
:1011BC001B6803F40033002BF9D12A4B1B68294A16
:1011CC0023F08073136000BF264B1B6803F0007381
:1011DC00002BF9D1234B244A5A60224B234AC3F8E3
:1011EC008420204B214AC3F888201E4B0022DA6051
:1011FC001C4B5B6F1B4A23F001035367194B5B6F4E
:10120C00184A23F080735367194B1A4A1A601A4B09
:10121C0000221A60184B00225A60174B00229A6069
:10122C00BFF35F8F00BF154A7B69DB699360BFF327
:10123C004F8F00BF7B699B691B683B617B695B6956
:10124C001B68FB60FB6883F3088800BF3B69984709
:10125C0000BF2037BD4680BD000001080000040817
:10126C000000080800380240103000040030002450
:10127C00000000200024F40010E000E000ED00E08D
:10128C0080B588B000AF78600023FB617B68BB61E0
:10129C00BB691B697B61BB691B6A2C2202FB03F3D4
:1012AC00BA6913443B61BB695A6ABB699B6AD31A1E
:1012BC00FB60FFF7F3FAB860FA683969B86800F0B8
:1012CC00EFF8B860BA687B699A4201D10123FB61DF
:1012DC00FB6918462037BD4680BD000080B586B03E
:1012EC0000AF78600023FB6000237B610023FB745C
:1012FC000023BB7428E07B68032B15D07B68032B81
:10130C0018D87B68012B03D07B68022B06D011E028
:10131C0003237B60144B1B687B610BE001237B6018
:10132C00124B1B687B6105E002237B60104B1B6832
:10133C007B6100BF7B691B68B3F1005F01D10123A6
:10134C00FB74BB7C0133BB74FB7C002B02D1BB7CDC
:10135C00022BD0D97B68FB60F868FFF771F9FB684A
:10136C0018461837BD4680BD00000808000001086B
:10137C000000040880B483B000AF03463960FB71F1
:10138C0097F90730002B0BDA3B68DAB20C49FB7982
:10139C0003F00F03043B1201D2B20B441A7609E09E
:1013AC003B68DAB2074997F907301201D2B20B4405
:1013BC0083F8002300BF0C37BD465DF8047B7047F3
:1013CC0000ED00E000E100E080B582B000AF786095
:1013DC007B68013BB3F1807F01D301230FE00A4A04
:1013EC007B68013B53600F214FF0FF30FFF7C2FFCA
:1013FC00054B00229A60044B07221A600023184602
:10140C000837BD4680BD00BF10E000E080B400AFDF
:10141C00044B1B680133034A136000BFBD465DF8E3
:10142C00047B7047E001002080B485B000AF786089
:10143C00084B1B68FB6000BF064B1A68FB68D31A8D
:10144C007A689A42F8D800BF00BF1437BD465DF8E1
:10145C00047B7047E001002080B582B000AFFEF73E
:10146C00DBFF0C4B1B680C4A934200D0FEE7094B88
:10147C001B680A4AA2FB03239B091846FFF7A4FF2B
:10148C0078607B68002B00D0FEE700BF0837BD46B4
:10149C0080BD00BF000000200095BA0AD34D621039
:1014AC0080B487B000AFF860B9607A60BB687B61CC
:1014BC0011E07B691B781A46FB685340DBB23B6139
:1014CC000B4A3B6952F82320FB681B0A5340FB6014
:1014DC007B6901337B617B685A1E7A60002BE8D1F3
:1014EC00FB6818461C37BD465DF8047B704700BF8F
:1014FC00801C000880B483B000AF0346FB71FB79FD
:10150C00032B38D11F4B1B6B1E4A43F04003136354
:10151C001D4B1B681C4A23F0705313601A4B1B683D
:10152C00194A43F0A0531360174B5B68164A23F417
:10153C00C0435360144B9B68134A43F07053936041
:10154C00104B5B6C0F4A43F4804353640F4B1B6A84
:10155C000E4A43F00103136200BF0C4B1B6A03F4E9
:10156C008073B3F5807FF8D1074BDB68064A23F014
:10157C007053D36000E000BF00BF0C37BD465DF870
:10158C00047B7047003802400018024000380140CC
:10159C0080B400AF0B4B1B6B0A4A43F0010313637F
:1015AC00094B1B68084A23F003031360064BDB68E6
:1015BC00054A63F00303D36000BFBD465DF8047BAE
:1015CC00704700BF003802400000024080B483B076
:1015DC0000AF074B1B69DBB203F00103DBB2FB71FD
:1015EC00FB79DBB218460C37BD465DF8047B7047BF
:1015FC000000024080B483B000AF0346FB71FB795E
:10160C00022B0BD0022B12DC002B02D0012B0AD0A8
:10161C000DE00A4B4FF400521A8309E0074B4FF4CC
:10162C0080421A8304E0064B01221A6000E000BFDE
:10163C0000BF0C37BD465DF8047B704700180240B4
:10164C00B402434280B483B000AF0346FB71FB7914
:10165C00022B0BD0022B12DC002B02D0012B0AD058
:10166C000DE00A4B4FF400525A8309E0074B4FF43C
:10167C0080425A8304E0064B00221A6000E000BF4F
:10168C0000BF0C37BD465DF8047B70470018024064
:10169C00B402434290B484B000AF044608461146ED
:1016AC001A462346FB710346BB710B467B711346EE
:1016BC003B713D4B1B68FA79012101FA02F211468C
:1016CC00394A0B431360FB799B0203F1804303F50A
:1016DC000033FB60FB681A687979BB795B0001FA0F
:1016EC0003F31946FB680A431A60BB79072B0DD824
:1016FC00FB6820331B683979BA79920001FA02F23F
:10170C001146FA6820320B4313600DE0FB6824335A
:10171C001B683979BA79083A920001FA02F211463B
:10172C00FA6824320B431360FB6804331B68397E60
:10173C00BA7901FA02F21146FA6804320B431360CB
:10174C00FB6808331B68397FBA79520001FA02F240
:10175C001146FA6808320B431360144B1B68134A8A
:10176C0043F480431360124B1B68114A43F001038E
:10177C00136000BF0E4B1B6803F48073B3F5807FBE
:10178C00F8D1FB680C331B6897F82010BA7952001B
:10179C0001FA02F21146FA680C320B43136000BFD7
:1017AC001037BD4690BC7047303802404438024078
:1017BC002038014080B483B000AF0346FB71FB7945
:1017CC00022B0BD0022B0EDC002B02D0012B0CD0E9
:1017DC0009E0094B4FF400521A8307E0064B4FF413
:1017EC0080421A8302E000BF00E000BF00BF0C374C
:1017FC00BD465DF8047B70470018024080B483B08E
:10180C0000AF0346FB71FB79022B0AD0022B0CDCD8
:10181C00002B02D0012B0AD007E0084B00225A8380
:10182C0006E0064B00225A8302E000BF00E000BF36
:10183C0000BF0C37BD465DF8047B704700180240B2
:10184C0080B400AF044B1B6803F4E0620249034B05
:10185C0013430B60FEE700BF0CED00E00400FA053B
:10186C0080B483B000AF78600B46FB707B68002BB4
:10187C0016D000BF0D4B1B6803F00103012BF9D0F0
:10188C000A4A7B68D360094AFB785360084B4FF0D7
:10189C007462DA60054B1B68044A43F00103136061
:1018AC0000BF0C37BD465DF8047B7047B86402403E
:1018BC000064024080B584B004AF0123029301237D
:1018CC000193002300930723022209210020FFF734
:1018DC00E1FE0123029301230193002300930723CC
:1018EC0002220A210020FFF7D5FE00BFBD4680BDB5
:1018FC0080B500AF194B1B889BB2184A43F40053B8
:10190C009BB21380154B1B889BB2144A43F00803FF
:10191C009BB21380114B1B889BB2104A43F00403FB
:10192C009BB213800E4B9B899BB20D4A43F0100364
:10193C009BB293810A4B9B8A9BB2094A43F080036A
:10194C009BB29382064B9B8A9BB2054A43F04003A1
:10195C009BB29382FEF75EFE00BF80BD0C1001406F
:10196C000010014080B400AF314B1B6B304A43F484
:10197C00800313632F4B1B6803F00103012B0CD165
:10198C002C4B1B682B4A23F00103136000BF294B1F
:10199C001B6803F00103012BF9D0264B1B68254A69
:1019AC0023F060631360234B1B68224A43F00063EF
:1019BC001360204B1B681F4A43F4403313601D4BCC
:1019CC001B681C4A23F0C00313601A4B1B68194A8E
:1019DC0043F040031360174B1B68164A23F4C043B3
:1019EC001360144B1B68134A23F4C0531360114B40
:1019FC005B69104A43F0040353610E4B5B690D4A5B
:101A0C0043F0030353610B4B1B680A4A43F4806396
:101A1C001360084B1B68074A43F010031360054B17
:101A2C00054A9A6000BFBD465DF8047B704700BF55
:101A3C0000380240B86402400410014080B485B004
:101A4C0000AF78607B6803F00703FB600C4BDB682E
:101A5C00BB60BA684FF6FF031340BB60FB681A0209
:101A6C00BB68134343F0BF6343F40033BB60044AC9
:101A7C00BB68D36000BF1437BD465DF8047B70476C
:101A8C0000ED00E080B483B000AF0346FB71FB793E
:101A9C0003F01F03012202FA03F1064A97F90730FB
:101AAC005B0942F8231000BF0C37BD465DF8047B80
:101ABC00704700BF00E100E080B483B000AF034684
:101ACC003960FB7197F90730002B0BDA3B68DAB2FF
:101ADC000C49FB7903F00F03043B1201D2B20B4407
:101AEC001A7609E03B68DAB2074997F90730120118
:101AFC00D2B20B4483F8002300BF0C37BD465DF80F
:101B0C00047B704700ED00E000E100E080B500AF21
:101B1C000320FFF793FF00214FF0FF30FFF7CCFFBE
:101B2C0001210620FFF7C8FF01210B20FFF7C4FF9E
:101B3C0001210D20FFF7C0FF01210F20FFF7BCFF93
:101B4C0001211120FFF7B8FF01212F20FFF7B4FF6F
:101B5C0001213820FFF7B0FF01213B20FFF7ACFF3C
:101B6C0001213C20FFF7A8FF01214420FFF7A4FF2F
:101B7C0001214620FFF7A0FF01212520FFF79CFF44
:101B8C0001213520FFF798FF01211E20FFF794FF5C
:101B9C0001212C20FFF790FF01212D20FFF78CFF56
:101BAC0001211220FFF788FF0620FFF76BFF0B20A7
:101BBC00FFF768FF0D20FFF765FF0F20FFF762FFAF
:101BCC001120FFF75FFF2F20FFF75CFF3820FFF796
:101BDC0059FF3B20FFF756FF3C20FFF753FF4420F3
:101BEC00FFF750FF4620FFF74DFF2520FFF74AFF78
:101BFC003520FFF747FF1E20FFF744FF2C20FFF78F
:101C0C0041FF2D20FFF73EFF1220FFF73BFF00BFE7
:101C1C0080BD000070B50D4D0D4C641BA41000264A
:101C2C00A64209D10B4D0C4C00F018F8641BA41003
:101C3C000026A64205D170BD55F8043B98470136E5
:101C4C00EEE755F8043B98470136F2E78020000890
:101C5C00802000088020000884200008F8B500BF10
:101C6C00F8BC08BC9E467047F8B500BFF8BC08BC71
:041C7C009E467047C9
:101C800000000000963007772C610EEEBA510999DA
:101C900019C46D078FF46A7035A563E9A395649E36
:101CA0003288DB0EA4B8DC791EE9D5E088D9D2975A
:101CB0002B4CB609BD7CB17E072DB8E7911DBF90B6
:101CC0006410B71DF220B06A4871B9F3DE41BE84DA
:101CD0007DD4DA1AEBE4DD6D51B5D4F4C785D38336
:101CE00056986C13C0A86B647AF962FDECC9658ADA
:101CF0004F5C0114D96C0663633D0FFAF50D088D36
:101D0000C8206E3B5E10694CE44160D5727167A2D9
:101D1000D1E4033C47D4044BFD850DD26BB50AA535
:101D2000FAA8B5356C98B242D6C9BBDB40F9BCAC59
:101D3000E36CD832755CDF45CF0DD6DC593DD1ABB5
:101D4000AC30D9263A00DE518051D7C81661D0BFD9
:101D5000B5F4B42123C4B3569995BACF0FA5BDB835
:101D60009EB802280888055FB2D90CC624E90BB1D9
:101D7000877C6F2F114C6858AB1D61C13D2D66B635
:101D80009041DC760671DB01BC20D2982A10D5EF99
:101D90008985B1711FB5B606A5E4BF9F33D4B8E8F5
:101DA000A2C9077834F9000F8EA8099618980EE199
:101DB000BB0D6A7F2D3D6D08976C6491015C63E6F5
:101DC000F4516B6B62616C1CD83065854E0062F219
:101DD000ED95066C7BA5011BC1F4088257C40FF575
:101DE000C6D9B06550E9B712EAB8BE8B7C88B9FC99
:101DF000DF1DDD62492DDA15F37CD38C654CD4FBF5
:101E00005861B24DCE51B53A7400BCA3E230BBD498
:101E100041A5DF4AD795D83D6DC4D1A4FBF4D6D3F4
:101E20006AE96943FCD96E34468867ADD0B860DA98
:101E3000732D0444E51D03335F4C0AAAC97C0DDDF4
:101E40003C710550AA41022710100BBE86200CC918
:101E500025B56857B3856F2009D466B99FE461CE74
:101E60000EF9DE5E98C9D9292298D0B0B4A8D7C798
:101E7000173DB359810DB42E3B5CBDB7AD6CBAC0F4
:101E80002083B8EDB6B3BF9A0CE2B6039AD2B17410
:101E90003947D5EAAF77D29D1526DB048316DC736C
:101EA000120B63E3843B64943E6A6D0DA85A6A7A10
:101EB0000BCF0EE49DFF099327AE000AB19E077D6C
:101EC00044930FF0D2A3088768F2011EFEC2066990
:101ED0005D5762F7CB67658071366C19E7066B6EEC
:101EE000761BD4FEE02BD3895A7ADA10CC4ADD6710
:101EF0006FDFB9F9F9EFBE8E43BEB717D58EB0606C
:101F0000E8A3D6D67E93D1A1C4C2D83852F2DF4F0F
:101F1000F167BBD16757BCA6DD06B53F4B36B2486B
:101F2000DA2B0DD84C1B0AAFF64A0336607A04410F
:101F3000C3EF60DF55DF67A8EF8E6E3179BE69466B
:101F40008CB361CB1A8366BCA0D26F2536E268528F
:101F500095770CCC03470BBBB91602222F260555EB
:101F6000BE3BBAC5280BBDB2925AB42B046AB35C0F
:101F7000A7FFD7C231CFD0B58B9ED92C1DAEDE5B6B
:101F8000B0C2649B26F263EC9CA36A750A936D024F
:101F9000A906099C3F360EEB8567077213570005AB
:101FA000824ABF95147AB8E2AE2BB17B381BB60CCF
:101FB0009B8ED2920DBED5E5B7EFDC7C21DFDB0B2B
:101FC000D4D2D38642E2D4F1F8B3DD686E83DA1F4F
:101FD000CD16BE815B26B9F6E177B06F7747B718AB
:101FE000E65A0888706A0FFFCA3B06665C0B01114F
:101FF000FF9E658F69AE62F8D3FF6B6145CF6C16AB
:1020000078E20AA0EED20DD75483044EC2B303394E
:10201000612667A7F71660D04D476949DB776E3EAA
:102020004A6AD1AEDC5AD6D9660BDF40F03BD837CE
:1020300053AEBCA9C59EBBDE7FCFB247E9FFB5302A
:102040001CF2BDBD8AC2BACA3093B353A6A3B4244E
:102050000536D0BA9306D7CD2957DE54BF67D923AA
:102060002E7A66B3B84A61C4021B685D942B6F2A4E
:1020700037BE0BB4A18E0CC31BDF055A8DEF022DAA
:04208000D101000882
:04208400AD010008A2
:102088000095BA0A000000000000000001020304E5
:102098000607080957656C636F6D6520746F2046E5
:1020A8006C61736820436F6E74726F6C6C6572201C
:1020B8002100000053656C65637420636F6D6D616A
:1020C8006E642066726F6D2074686520666F6C6C34
:1020D8006F77696E673A2000313A20466C61736801
:1020E800204C6F636B000000323A20466C617368C5
:1020F80020556E6C6F636B00333A205772697465B4
:102108002044617461000000343A20526561642003
:102118004461746100000000353A20536563746FB0
:102128007220457261736500363A2057726974658A
:102138002050726F74656374696F6E00373A20526D
:10214800656D6F76652057726974652050726F747B
:10215800656374696F6E0000383A204F7074696F58
:102168006E20427974657320556E6C6F636B000046
:10217800393A204F7074696F6E2042797465732004
:102188004C6F636B0000000031303A20446972657F
:102198006374204A756D70002A2A2A2A2A2A2A2A54
:1021A8002A2A2A2A2A2A2A2A2A2A2A2A2A2A2A2A87
:1021B8002A2A2A2A2A2A2A2A2A2A2A2A2A2A2A2A77
:1021C8002A2A2A2A2A2A000050726F6772616D6DC6
:1021D800696E672073657175656E636520657272D7
:1021E8006F72000050726F6772616D6D696E672063
:1021F800706172616C6C656C69736D206572726F69
:102208007200000050726F6772616D6D696E6720B1
:10221800616C69676E6D656E74206572726F7200AD
:1022280057726974652070726F74656374696F6E34
:10223800206572726F72000041434B004E41434B60
:042248000000000092
:040000050800027974
:00000001FF
