:020000040800F2
:10000000000003201D1600086F1600087D1600086A
:1000100083160008891600088F16000800000000EB
:10002000000000000000000000000000951600081D
:10003000A316000800000000B1160008BF16000853
:100040006D1600086D1600086D1600086D16000884
:10005000511700086D160008CB160008D7160008C7
:10006000E5160008F31600086D1600086D16000866
:100070006D1600086D1600086D1600086D16000854
:100080006D1600086D1600086D1600086D16000844
:100090006D1600086D1600086D1600086D16000834
:1000A0006D1600086D1600086D1600086D16000824
:1000B0006D1600086D1600086D1600086D16000814
:1000C0006D1600086D1600086D1600086D16000804
:1000D0006D160008451700086D1600086D1600081B
:1000E0006D1600086D1600086D1600086D160008E4
:1000F0006D1600086D1600086D1600086D160008D4
:100100006D1600086D1600086D1600086D160008C3
:100110006D1600086D1600086D1600086D160008B3
:10012000011700086D1600086D1600086D1600080E
:100130006D1600086D1600086D1600086D16000893
:100140006D1600086D1600086D1600086D16000883
:100150002D1700086D160008391700086D160008E5
:100160006D1600086D1600086D1600086D16000863
:100170006D1600086D1600086D1600086D16000853
:100180006D1600086D1600086D1600086D16000843
:100190006D1600086D1600086D1600086D16000833
:0C01A0006D1600086D1600086D160008B2
:1001AC0010B5054C237833B9044B13B10448AFF3A5
:1001BC0000800123237010BDC4010020000000004A
:1001CC00001A000808B5034B1BB103490348AFF3F1
:1001DC00008008BD00000000C8010020001A0008C3
:1001EC0080B500AF00F06EFE01F08EF962B600F043
:1001FC005BF800F05FF800F06FF800F073F801F0B6
:10020C0075F800F0DDF800F05DFE1A4B07221A605D
:10021C00032000F07BFE00F0C7FE002000F0F6FE8D
:10022C0040F6B83000F036FE00F0DCFE03461A460D
:10023C00114B1A70104B1B78DBB2012B05D100202F
:10024C0000F00AFF00F0E2F813E000F039FC03467E
:10025C00012B02D100F06CFC0BE000F04DFC0346CE
:10026C00012B02D100F010FD03E0022000F0CEFEC5
:10027C00FEE7FEE710E000E00402002080B400AFCF
:10028C00074B4FF474621A60064A064B1B6843F026
:10029C000103136000BFBD465DF8047B704700BFCF
:1002AC00046402408864024080B500AF01F000F89D
:1002BC0000BF80BD80B400AF054B10225A64054BC3
:1002CC0040F20D321A8100BFBD465DF8047B7047C9
:1002DC00003802400010014080B500AF01F040F83A
:1002EC0000BF80BD80B400AF314A314B1B6B43F46F
:1002FC00800313632F4B1B6803F00103012B0CD1FC
:10030C002C4A2C4B1B6823F00103136000BF294BB4
:10031C001B6803F00103012BF9D0264A254B1B68FF
:10032C0023F060631360234A224B1B6843F0006385
:10033C001360204A1F4B1B6843F4403313601D4A63
:10034C001C4B1B6823F0C00313601A4A194B1B6823
:10035C0023F4C0431360174A164B1B6823F4C05395
:10036C001360144A134B5B6943F004035361114A45
:10037C00104B5B6943F0030353610E4A0D4B1B6832
:10038C0043F4806313600B4A0A4B1B6843F0100361
:10039C001360084B084A9A60064B084ADA60054B12
:1003AC0080225A6000BFBD465DF8047B704700BFD9
:1003BC0000380240886402400410014030040020E0
:1003CC0080B400AF0E4B0F4A5A600D4B0E4A5A6068
:1003DC000B4A0B4B1B6923F440731361084A084BFF
:1003EC001B6943F400731361054A054B1B6943F009
:1003FC000043136100BFBD465DF8047B704700BF2E
:10040C00003C024023016745AB89EFCD80B500AFBE
:10041C002B4B1B78002B02D0012B40D04EE02F2110
:10042C00284800F01BFF1E21274800F017FF24214D
:10043C00264800F013FF2F21224800F00FFF0E2159
:10044C00234800F00BFF1021224800F007FF0E217B
:10045C00214800F003FF0D21204800F0FFFE102181
:10046C001F4800F0FBFE14211E4800F0F7FE1B2174
:10047C001D4800F0F3FE17211C4800F0EFFE15217B
:10048C001B4800F0EBFE10211A4800F0E7FE2F216C
:10049C000C4800F0E3FE0A4B01221A700EE0164BDA
:1004AC001B78002B06D000F01DF900F09FF8124BC2
:1004BC0000221A70024B01221A7000BF00BF80BDCF
:1004CC00ED0100200401002000000020200000208D
:1004DC004400002054000020640000207400002020
:1004EC008400002094000020A8000020C4000020FC
:1004FC00DC000020F40000202004002080B400AFB9
:10050C00094B1B889BB203F01003102B07D1064B31
:10051C009B88064A054B1B6823F00103136000BF40
:10052C00BD465DF8047B70470010014088640240B2
:10053C0080B400AF074B5B6803F00063B3F1006F4E
:10054C0003D1044B4FF07462DA6000BFBD465DF816
:10055C00047B70470064024080B483B000AF1A4B38
:10056C005B6803F40063B3F5006F27D1174B5B682E
:10057C00DAB26FF07F039B1ADAB2154B1A700023B4
:10058C007B600BE0134A7B6813441978124A7B6832
:10059C0013440A461A707B6801337B600C4B1B7842
:1005AC001A467B689A42EDDC074B4FF47462DA60B2
:1005BC00064A064B1B6843F00103136000BF0C375F
:1005CC00BD465DF8047B70470064024088640240BD
:1005DC0020040020300400208C02002080B400AFE6
:1005EC0000BFBD465DF8047B7047000080B500AFCE
:1005FC00344BDB6803F08003802B12D10521324889
:10060C0000F02CFE1B21314800F028FE2F21304831
:10061C0000F024FE2B4A2B4BDB6843F08003D360A5
:10062C004EE0284BDB6803F04003402B12D1052130
:10063C00254800F013FE1E21264800F00FFE2F2146
:10064C00234800F00BFE1F4A1E4BDB6843F04003AF
:10065C00D36035E01B4BDB6803F02003202B12D159
:10066C000521194800F0FAFD1C211B4800F0F6FD8D
:10067C002F21174800F0F2FD124A124BDB6843F0B1
:10068C002003D3601CE00F4BDB6803F01003102B2E
:10069C0012D105210C4800F0E1FD17210F4800F0A4
:1006AC00DDFD2F210A4800F0D9FD064A054BDB6819
:1006BC0043F01003D36003E00421094800F0CEFDA1
:1006CC0000BF80BD003C0240A80100203401002086
:1006DC000401002050010020700100208C0100203A
:1006EC00A401002080B588B000AF00237B610023FB
:1006FC003B6100237B600023FB618D4B1B78013B2E
:10070C00092B00F2C38101A252F823F04107000823
:10071C004F0700085D070008C7070008ED07000831
:10072C0051080008BB080008210900082F0900081F
:10073C00590900087F4A7F4B1B6943F00043136142
:10074C00A5E17C4B7C4A5A607A4B7C4A5A609EE10C
:10075C0000BF784BDB6803F48033002BF9D1754A6A
:10076C00744B1B6943F001031361754B1B687B6170
:10077C000023FB7617E0FB7E9B0005336C4A134489
:10078C001B683B61FB7E9A007B6913441A463B69EC
:10079C00136000BF674BDB6803F48033002BF9D187
:1007AC00FB7E0133FB76FB7E032BE4D9614A614B64
:1007BC001B6923F00103136169E100BF5D4BDB682A
:1007CC0003F48033002BF9D15D4B1B687B617B6993
:1007DC001B687B603B1D0421184600F03FFD56E171
:1007EC0000BF544BDB6803F48033002BF9D1514A22
:1007FC00504B1B6943F0020313614D4B5B78FB615B
:10080C00FB690B2B02D9FB690433FB614949494B4A
:10081C001A69FB69DB00DBB213430B61454A454B9C
:10082C001B6943F48033136100BF424BDB6803F454
:10083C008033002BF9D13F4A3E4B1B6923F0020356
:10084C00136124E100BF3B4BDB6803F48033002BC6
:10085C00F9D1374B5B78FB61FB690B2B0ED9FB692C
:10086C000C3BFB613349334B9B690120FA6900FA5D
:10087C0002F21204D24313408B610AE02D492D4B36
:10088C005B690120FA6900FA02F21204D2431340A8
:10089C004B61284A274B5B6943F00203536100BF4D
:1008AC00244BDB6803F48033002BF9D1EFE000BF5D
:1008BC00204BDB6803F48033002BF9D11C4B5B78A5
:1008CC00FB61FB690B2B0DD9FB690C3BFB611949D7
:1008DC00184B9B690120FA6900FA02F212041343C7
:1008EC008B6109E01349134B5B690120FA6900FA2B
:1008FC0002F2120413434B610E4A0E4B5B6943F038
:10090C000203536100BF0B4BDB6803F48033002BF5
:10091C00F9D1BCE0074B0B4A9A60064B0A4A9A6025
:10092C00B5E0044A034B5B6943F001035361AEE04D
:10093C008C020020003C024023016745AB89EFCDBF
:10094C008D0200203B2A19087F6E5D4C524B1B68B0
:10095C007B617B691B683B613B690521184600F094
:10096C007DFC7B690521184600F078FC3B6903F09F
:10097C000053002B00F0868072B6484A474B1B6927
:10098C0043F4800343F001031361444B00221A61CA
:10099C00424B10225A62414B00225A623F4A3F4B53
:1009AC001B6843F00103136000BF3C4B1B6803F052
:1009BC000203022BF9D1394A384B1B6843F08003F0
:1009CC001360364B00229A6000BF344B9B6803F0D7
:1009DC000C03002BF9D1314A304B1B6823F4502304
:1009EC00136000BF2D4B1B6803F40033002BF9D1AF
:1009FC002A4A2A4B1B6823F08073136000BF274BD5
:100A0C001B6803F00073002BF9D1244B244A5A6065
:100A1C00224B244AC3F88420204B224AC3F8882056
:100A2C001E4B0022DA601D4A1C4B5B6F23F0010346
:100A3C0053671A4A194B5B6F23F0807353671A4B39
:100A4C001A4A1A601A4B00221A60194B00225A607B
:100A5C00174B00229A607B69164A934206D0BFF36B
:100A6C005F8F154A7B699360BFF34F8F7B690433AB
:100A7C001B68FB603B69BB60BB6883F30888FB6841
:100A8C00984703E005210D4800F0E8FB00BF00BFCC
:100A9C002037BD4680BD00BF8D02002000380240CB
:100AAC001030000400300024B00100200024F400B9
:100ABC0010E000E00000FF1F00ED00E0A8010020A6
:100ACC0080B485B000AF0023FB730A4B3B603B68DE
:100ADC00BB60BB681B687B607B6803F00053002B1A
:100AEC0001D00123FB73FB7B18461437BD465DF820
:100AFC00047B704700000E0880B485B000AF002363
:100B0C00FB730A4B3B603B68BB60BB681B687B603C
:100B1C007B6803F00053002B01D00123FB73FB7B9C
:100B2C0018461437BD465DF8047B704700001E085C
:100B3C0080B586B000AF4B4B7B607B687B617B697B
:100B4C001B683B613B6903F00053002B00F0858070
:100B5C0072B6454A444B1B6943F4800343F00103CE
:100B6C001361414B00221A613F4B10225A623E4BDB
:100B7C0000225A623C4A3C4B1B6843F00103136051
:100B8C0000BF394B1B6803F00203022BF9D1364A24
:100B9C00354B1B6843F080031360334B00229A6083
:100BAC0000BF314B9B6803F00C03002BF9D12E4A8C
:100BBC002D4B1B6823F45023136000BF2A4B1B687A
:100BCC0003F40033002BF9D1274A274B1B6823F081
:100BDC008073136000BF244B1B6803F00073002B61
:100BEC00F9D1214B214A5A601F4B214AC3F884206A
:100BFC001D4B1F4AC3F888201B4B0022DA601A4A8F
:100C0C00194B5B6F23F001035367174A164B5B6F4D
:100C1C0023F080735367174B174A1A60174B002247
:100C2C001A60164B00225A60144B00229A607B69A2
:100C3C00134A934206D0BFF35F8F124A7B699360CD
:100C4C00BFF34F8F7B6904331B68FB603B69BB6050
:100C5C00BB6883F30888FB68984700BF1837BD460C
:100C6C0080BD00BF00000E080038024010300004A8
:100C7C0000300024B00100200024F40010E000E05B
:100C8C000000FF1F00ED00E080B586B000AF4B4BBD
:100C9C007B607B687B617B691B683B613B6903F014
:100CAC000053002B00F0858072B6454A444B1B69FB
:100CBC0043F4800343F001031361414B00221A619A
:100CCC003F4B10225A623E4B00225A623C4A3C4B2C
:100CDC001B6843F00103136000BF394B1B6803F022
:100CEC000203022BF9D1364A354B1B6843F08003C3
:100CFC001360334B00229A6000BF314B9B6803F0AA
:100D0C000C03002BF9D12E4A2D4B1B6823F45023D6
:100D1C00136000BF2A4B1B6803F40033002BF9D17E
:100D2C00274A274B1B6823F08073136000BF244BAA
:100D3C001B6803F00073002BF9D1214B214A5A6038
:100D4C001F4B214AC3F884201D4B1F4AC3F888202F
:100D5C001B4B0022DA601A4A194B5B6F23F001031C
:100D6C005367174A164B5B6F23F080735367174B0F
:100D7C00174A1A60174B00221A60164B00225A6051
:100D8C00144B00229A607B69134A934206D0BFF33E
:100D9C005F8F124A7B699360BFF34F8F7B6904337B
:100DAC001B68FB603B69BB60BB6883F30888FB680E
:100DBC00984700BF1837BD4680BD00BF00001E0815
:100DCC00003802401030000400300024B001002034
:100DDC000024F40010E000E00000FF1F00ED00E034
:100DEC0080B483B000AF03463960FB7197F90730CC
:100DFC00002B0BDA0D49FB7903F00F03043B3A6827
:100E0C00D2B21201D2B20B441A7609E0084997F912
:100E1C0007303A68D2B21201D2B20B4483F80023E5
:100E2C0000BF0C37BD465DF8047B704700ED00E059
:100E3C0000E100E080B582B000AF78607B68013BD8
:100E4C00B3F1807F01D301230FE00A4A7B68013B99
:100E5C0053600F214FF0FF30FFF7C2FF054B00220C
:100E6C009A60044B07221A60002318460837BD46C7
:100E7C0080BD00BF10E000E080B400AF044B1B68E5
:100E8C000133034A136000BFBD465DF8047B704715
:100E9C00E001002080B485B000AF7860084B1B687F
:100EAC00FB6000BF064B1A68FB68D21A7B689A423B
:100EBC00F8D300BF1437BD465DF8047B704700BF04
:100ECC00E001002080B582B000AF00F077FC0C4B45
:100EDC001B680C4A934200D0FEE7094B1B680A4A78
:100EEC00A2FB03239B091846FFF7A4FF78607B68DD
:100EFC00002B00D0FEE700BF0837BD4680BD00BF09
:100F0C00B00100200095BA0AD34D621080B483B0B2
:100F1C0000AF0346FB71FB79032B00D038E01F4A6E
:100F2C001E4B1B6B43F0400313631D4A1C4B1B6889
:100F3C0023F0705313601A4A194B1B6843F0A053EB
:100F4C001360174A164B5B6823F4C0435360144A72
:100F5C00134B9B6843F070539360104A0F4B5B6CC0
:100F6C0043F4804353640F4A0E4B1B6A43F0010356
:100F7C00136200BF0B4B1B6A03F48073B3F5807FC5
:100F8C00F8D1074A064BDB6823F07053D36000BFDF
:100F9C0000BF0C37BD465DF8047B7047003802403B
:100FAC00001802400038014080B400AF0B4A0B4BD4
:100FBC001B6B43F001031363094A094B1B6823F0B5
:100FCC0003031360064A064BDB6863F00303D3602C
:100FDC0000BFBD465DF8047B704700BF003802407F
:100FEC000000024080B483B000AF074B1B69DBB23A
:100FFC0003F00103DBB2FB71FB79DBB218460C3753
:10100C00BD465DF8047B70470000024080B483B09D
:10101C0000AF0346FB71FB79012B0ED0022B07D0DE
:10102C00002B00D00DE00A4B4FF400521A8308E05D
:10103C00074B4FF480421A8303E0064B01221A60DF
:10104C0000BF00BF0C37BD465DF8047B704700BF86
:10105C0000180240B402434280B483B000AF034690
:10106C00FB71FB79012B0ED0022B07D0002B00D08B
:10107C000DE00A4B4FF400525A8308E0074B4FF433
:10108C0080425A8303E0064B00221A6000BF00BF67
:10109C000C37BD465DF8047B704700BF001802405A
:1010AC00B402434290B484B000AF044608461146E3
:1010BC001A462346FB710346BB710B467B711346E4
:1010CC003B713C493B4B1B68FA79012000FA02F258
:1010DC0013430B60FB799B0203F1804303F5003350
:1010EC00FB60FB68FA6812687879B979490000FAF4
:1010FC0001F10A431A60BB79072B0DD8FB6820332A
:10110C001846FB6820331B683979BA79920001FACA
:10111C0002F2134303600DE0FB6824331846FB68AE
:10112C0024331B683979BA79083A920001FA02F231
:10113C0013430360FB6804331846FB6804331B68D5
:10114C00397EBA7901FA02F213430360FB68083363
:10115C001846FB6808331B68397FBA79520001FACC
:10116C0002F213430360144A134B1B6843F480438D
:10117C001360124A114B1B6843F00103136000BF4C
:10118C000E4B1B6803F48073B3F5807FF8D1FB68BA
:10119C000C331846FB680C331B6897F82010BA798F
:1011AC00520001FA02F21343036000BF1037BD4630
:1011BC0090BC70473038024044380240203801401F
:1011CC0080B483B000AF0346FB71FB79012B0ED0CA
:1011DC00022B07D0002B00D00AE0084B4FF4005232
:1011EC001A8305E0054B4FF480421A8300E000BFE0
:1011FC0000BF0C37BD465DF8047B704700180240F9
:10120C0080B483B000AF0346FB71FB79012B0CD08B
:10121C00022B06D0002B00D008E0074B00225A838B
:10122C0004E0054B00225A8300E000BF00BF0C37DE
:10123C00BD465DF8047B70470018024080B400AFD7
:10124C000449044B1B6803F4E062034B13430B602B
:10125C00FEE700BF0CED00E00400FA0580B483B09B
:10126C0000AF78600B46FB707B68002B16D000BF7C
:10127C000D4B1B6803F00103012BF9D00A4A7B6864
:10128C00D360094AFB785360084B4FF07462DA6004
:10129C00054A054B1B6843F00103136000BF0C3774
:1012AC00BD465DF8047B7047B864024000640240A0
:1012BC0080B584B004AF0123029301230193002372
:1012CC0000930723022209210020FFF7EBFE0123E4
:1012DC0002930123019300230093072302220A2186
:1012EC000020FFF7DFFE00BFBD4680BD80B500AF1C
:1012FC00194A194B1B889BB243F400539BB21380C1
:10130C00154A154B1B889BB243F008039BB2138004
:10131C00114A114B1B889BB243F004039BB2138000
:10132C000E4A0E4B9B899BB243F010039BB29381E8
:10133C000A4A0A4B9B8A9BB243F080039BB293826E
:10134C00064A064B9B8A9BB243F040039BB29382A6
:10135C00FEF794FF00BF80BD0C100140001001404F
:10136C0080B400AF314A314B1B6B43F480031363E1
:10137C002F4B1B6803F00103012B0CD12C4A2C4B77
:10138C001B6823F00103136000BF294B1B6803F09B
:10139C000103012BF9D0264A254B1B6823F060630F
:1013AC001360234A224B1B6843F000631360204AEE
:1013BC001F4B1B6843F4403313601D4A1C4B1B68C6
:1013CC0023F0C00313601A4A194B1B6843F0400307
:1013DC001360174A164B1B6823F4C0431360144A5E
:1013EC00134B1B6823F4C0531360114A104B5B69F9
:1013FC0043F0040353610E4A0D4B5B6943F0030346
:10140C0053610B4A0A4B1B6843F480631360084A10
:10141C00074B1B6843F010031360054B054A9A6099
:10142C0000BFBD465DF8047B704700BF003802402A
:10143C00B86402400410014080B485B000AF7860FD
:10144C007B6803F00703FB600C4BDB68BB60BA687E
:10145C004FF6FF031340BB60FB681A02BB681343D3
:10146C0043F0BF6343F40033BB60044ABB68D360F2
:10147C0000BF1437BD465DF8047B704700ED00E0FB
:10148C0080B483B000AF0346FB71094997F907306C
:10149C005B09FA7902F01F02012000FA02F241F80E
:1014AC00232000BF0C37BD465DF8047B704700BF9E
:1014BC0000E100E080B483B000AF03463960FB71FB
:1014CC0097F90730002B0BDA0D49FB7903F00F036A
:1014DC00043B3A68D2B21201D2B20B441A7609E03C
:1014EC00084997F907303A68D2B21201D2B20B44CC
:1014FC0083F8002300BF0C37BD465DF8047B7047B2
:10150C0000ED00E000E100E080B500AF0320FFF744
:10151C0093FF00214FF0FF30FFF7CCFF0121062095
:10152C00FFF7C8FF01210B20FFF7C4FF01210D209D
:10153C00FFF7C0FF01210F20FFF7BCFF0121112095
:10154C00FFF7B8FF01212F20FFF7B4FF012138204E
:10155C00FFF7B0FF01213B20FFF7ACFF01213C203E
:10156C00FFF7A8FF01214420FFF7A4FF012146202B
:10157C00FFF7A0FF01212520FFF79CFF012135205B
:10158C00FFF798FF01211E20FFF794FF01212C206B
:10159C00FFF790FF01212D20FFF78CFF0121122076
:1015AC00FFF788FF0620FFF76BFF0B20FFF768FFA4
:1015BC000D20FFF765FF0F20FFF762FF1120FFF7EB
:1015CC005FFF2F20FFF75CFF3820FFF759FF3B2010
:1015DC00FFF756FF3C20FFF753FF4420FFF750FF67
:1015EC004620FFF74DFF2520FFF74AFF3520FFF778
:1015FC0047FF1E20FFF744FF2C20FFF741FF2D2053
:10160C00FFF73EFF1220FFF73BFF00BF80BD00003D
:10161C00DFF834D0002103E00C4B5B58435004310D
:10162C000B480C4B42189A42F6D30B4A02E00023AB
:10163C0042F8043B094B9A42F9D300F089F800F0C8
:10164C00B5F9FEF7CDFD704700000320201A000805
:10165C0000000020C4010020C4010020B4040020BC
:10166C00FEE780B400AF00BFBD465DF8047B704759
:10167C0080B400AFFEE780B400AFFEE780B400AFEB
:10168C00FEE780B400AFFEE780B400AF00BFBD46FC
:10169C005DF8047B704780B400AF00BFBD465DF8B9
:1016AC00047B704780B400AF00BFBD465DF8047B7F
:1016BC00704780B500AFFFF7DFFB00BF80BD80B582
:1016CC0000AFFFF7BBFD00BF80BD80B400AF00BF13
:1016DC00BD465DF8047B704780B400AF00BFBD46CB
:1016EC005DF8047B704780B400AF00BFBD465DF869
:1016FC00047B704780B500AF084B1B6803F02003D8
:10170C00202B06D10020FFF77BFD044B20229A6092
:10171C0002E00220FFF754FD00BF80BD00640240D0
:10172C0080B500AFFEF718FF00BF80BD80B500AFDD
:10173C00FEF7FEFE00BF80BD80B500AFFEF7DEFEFB
:10174C0000BF80BD80B500AFFEF748FF00BF80BD75
:10175C0080B500AF164A164BD3F8883043F47003AB
:10176C00C2F88830134A134B1B6843F00103136013
:10177C00104B00229A600F4A0E4B1B6823F08473A7
:10178C0023F4803313600B4B0B4A5A60094A094B04
:10179C001B6823F480231360064B0022DA6000F0F0
:1017AC0089F8034B4FF000629A6000BF80BD00BF08
:1017BC0000ED00E0003802401030002480B487B007
:1017CC0000AF00233B6100237B610223FB600023FD
:1017DC00BB6002237B60324B9B6803F00C033B61C4
:1017EC003B69042B07D0082B09D0002B3DD12D4B86
:1017FC002D4A1A603DE02B4B2C4A1A6039E0284BDD
:10180C005B689B0D03F00103BB60254B5B6803F029
:10181C003F037B60BB68002B0CD0244A7B68B2FB77
:10182C00F3F31F4A52689209C2F3080202FB03F356
:10183C007B610BE01C4A7B68B2FBF3F3184A5268DD
:10184C009209C2F3080202FB03F37B61144B5B6841
:10185C001B0C03F0030301335B00FB607A69FB682C
:10186C00B2FBF3F30F4A136003E00E4B0E4A1A60FF
:10187C0000BF0B4B9B681B0903F00F030C4AD35C96
:10188C00DBB23B61074B1A683B6922FA03F3054A4A
:10189C00136000BF1C37BD465DF8047B704700BF6A
:1018AC0000380240B00100200024F40000127A003D
:1018BC00B401002080B483B000AF00237B60002310
:1018CC003B60364A354B1B6843F480331360334B13
:1018DC001B6803F400333B607B6801337B603B681F
:1018EC00002B03D17B68B3F5A06FF0D12B4B1B6899
:1018FC0003F40033002B02D001233B6001E00023F2
:10190C003B603B68012B02D1244B254A5A60234A89
:10191C00224B1B6C43F080531364224A214B1B68EF
:10192C0043F4404313601D4A1C4B9B6893601B4A55
:10193C001A4B9B6843F400439360184A174B9B68FF
:10194C0043F4A0539360154A144B1B6843F0807307
:10195C00136000BF114B1B6803F00073002BF9D010
:10196C00114B40F205721A600C4A0C4B9B6823F029
:10197C0003039360094A094B9B6843F0020393608D
:10198C0000BF064B9B6803F00C03082BF9D100BF7A
:10199C000C37BD465DF8047B704700BF0038024031
:1019AC00085A400700700040003C024070B50D4ED4
:1019BC000D4CA41BA4100025A54209D10B4E0C4CB8
:1019CC0000F018F8A41BA4100025A54205D170BD89
:1019DC0056F8253098470135EEE756F825309847EC
:1019EC000135F2E7181A0008181A0008181A00082E
:1019FC001C1A0008F8B500BFF8BC08BC9E4670471E
:0C1A0C00F8B500BFF8BC08BC9E4670474F
:041A1800D1010008F0
:041A1C00AD01000810
:101A200057656C636F6D6520746F20466C617368D9
:101A300020436F6E74726F6C6C6572202100000021
:101A400053656C65637420636F6D6D616E642066B1
:101A5000726F6D2074686520666F6C6C6F77696E4D
:101A6000673A2000313A20466C617368204C6F63FE
:101A70006B000000323A20466C61736820556E6C32
:101A80006F636B00333A2057726974652044617448
:101A900061000000343A2052656164204461746141
:101AA00000000000353A20536563746F7220457260
:101AB00061736500363A2057726974652050726F01
:101AC00074656374696F6E00373A2052656D6F7686
:101AD000652057726974652050726F74656374690C
:101AE0006F6E0000383A204F7074696F6E20427933
:101AF00074657320556E6C6F636B0000393A204F2C
:101B00007074696F6E204279746573204C6F636BDB
:101B10000000000031303A20446972656374204A45
:101B2000756D70002A2A2A2A2A2A2A2A2A2A2A2A6B
:101B30002A2A2A2A2A2A2A2A2A2A2A2A2A2A2A2A05
:101B40002A2A2A2A2A2A2A2A2A2A2A2A2A2A2A2AF5
:101B50002A2A000050726F6772616D6D696E67208E
:101B600073657175656E6365206572726F720000D2
:101B700050726F6772616D6D696E6720706172611E
:101B80006C6C656C69736D206572726F7200000019
:101B900050726F6772616D6D696E6720616C696705
:101BA0006E6D656E74206572726F72005772697423
:101BB000652070726F74656374696F6E20657272F0
:101BC0006F72000041434B004E41434B0000000048
:101BD0000095BA0A000000000000000001020304A2
:041BE00006070809E3
:040000050800161DBC
:00000001FF
