:02000004081ED4
:1000000000000320ED011E0843021E0851021E08D5
:1000100057021E085D021E0863021E080000000051
:1000200000000000000000000000000069021E083F
:1000300077021E080000000085021E0893021E08B9
:1000400041021E0841021E0841021E0841021E080C
:1000500041021E0841021E089F021E08AB021E0834
:10006000B7021E08C3021E0841021E08D1021E0864
:1000700041021E08DD021E0841021E08E9021E0898
:1000800041021E08F5021E0885031E0841021E08D3
:1000900041021E0841021E0841021E0841021E08BC
:1000A00041021E0841021E0841021E0841021E08AC
:1000B00041021E0841021E0861031E0841021E087B
:1000C00041021E0841021E0841021E0841021E088C
:1000D00041021E0849031E0841021E0841021E0873
:1000E00041021E0841021E0841021E0841021E086C
:1000F0006D031E0879031E0841021E0801031E0835
:1001000041021E0841021E0841021E0841021E084B
:1001100041021E0855031E0841021E0841021E0826
:100120000D031E0841021E0841021E0819031E0885
:1001300025031E0841021E0841021E0841021E0836
:1001400041021E0841021E0841021E0841021E080B
:1001500031031E0841021E083D031E0841021E080D
:1001600041021E0841021E0841021E0841021E08EB
:1001700041021E0841021E0841021E0841021E08DB
:1001800041021E0841021E0841021E0841021E08CB
:1001900041021E0841021E0841021E0841021E08BB
:0C01A00041021E0841021E0841021E0818
:1001AC0010B5054C237833B9044B13B10448AFF3A5
:1001BC0000800123237010BD1400002000000000FB
:1001CC00940F1E0808B5034B1BB103490348AFF34A
:1001DC00008008BD0000000018000020940F1E08CD
:1001EC00DFF838D072B6002103E00D4B5B5843505A
:1001FC0004310C480C4B42189A42F6D30B4A02E0DD
:10020C00002342F8043B0A4B9A42F9D300F0BAF8A7
:10021C0000F096FE00F0E0F97047000000000320AB
:10022C00B40F1E0800000020140000201400002051
:10023C0044010020FEE780B400AF00BFBD465DF86E
:10024C00047B704780B400AFFEE780B400AFFEE7DC
:10025C0080B400AFFEE780B400AFFEE780B400AF1F
:10026C0000BFBD465DF8047B704780B400AF00BF93
:10027C00BD465DF8047B704780B400AF00BFBD463F
:10028C005DF8047B704780B500AF00F0FBFA00BF4F
:10029C0080BD80B500AF00F07BFB00BF80BD80B59A
:1002AC0000AF00F001FA00BF80BD80B500AF00F0D8
:1002BC000BFA00BF80BD80B400AF00BFBD465DF837
:1002CC00047B704780B500AF00F03EFA00BF80BDE4
:1002DC0080B500AF00F0C4F900BF80BD80B500AFA1
:1002EC0000F094F900BF80BD80B500AF00F098FB22
:1002FC0000BF80BD80B500AF00F03EFA00BF80BDEE
:10030C0080B500AF00F074FB00BF80BD80B500AFBE
:10031C0000F0FCF900BF80BD80B500AF00F0E4F93F
:10032C0000BF80BD80B500AF00F0C2FB00BF80BD38
:10033C0080B500AF00F0A8FB00BF80BD80B500AF5A
:10034C0000F088FB00BF80BD80B500AF00F028FA3C
:10035C0000BF80BD80B500AF00F0B4FD00BF80BD14
:10036C0080B500AF00F0C0FD00BF80BD80B500AF10
:10037C0000F0BAFD00BF80BD80B500AF00F0D8FA28
:10038C0000BF80BD80B500AF144A144BD3F8883041
:10039C0043F47003C2F88830114A114B1B6843F0C8
:1003AC00010313600E4B00229A600D4A0C4B1B6824
:1003BC0023F0847323F480331360094B094A5A6089
:1003CC00074A074B1B6823F480231360044B00225D
:1003DC00DA6000F085F800BF80BD00BF00ED00E0E2
:1003EC00003802401030002480B487B000AF0023E6
:1003FC003B6100237B610223FB600023BB60022373
:10040C007B60324B9B6803F00C033B613B69042B14
:10041C0007D0082B09D0002B3DD12D4B2D4A1A604B
:10042C003DE02B4B2C4A1A6039E0284B5B689B0D46
:10043C0003F00103BB60254B5B6803F03F037B605B
:10044C00BB68002B0CD0244A7B68B2FBF3F31F4A29
:10045C0052689209C2F3080202FB03F37B610BE0C2
:10046C001C4A7B68B2FBF3F3184A52689209C2F338
:10047C00080202FB03F37B61144B5B681B0C03F05B
:10048C00030301335B00FB607A69FB68B2FBF3F397
:10049C000F4A136003E00E4B0E4A1A6000BF0B4B61
:1004AC009B681B0903F00F030C4AD35CDBB23B6166
:1004BC00074B1A683B6922FA03F3054A136000BF25
:1004CC001C37BD465DF8047B704700BF0038024006
:1004DC00000000200024F40000127A000400002028
:1004EC0080B483B000AF00237B6000233B60364AAE
:1004FC00354B1B6843F480331360334B1B6803F498
:10050C0000333B607B6801337B603B68002B03D17D
:10051C007B68B3F5A06FF0D12B4B1B6803F4003351
:10052C00002B02D001233B6001E000233B603B68C1
:10053C00012B02D1244B254A5A60234A224B1B6CB7
:10054C0043F080531364224A214B1B6843F440430D
:10055C0013601D4A1C4B9B6893601B4A1A4B9B688B
:10056C0043F400439360184A174B9B6843F4A05321
:10057C009360154A144B1B6843F08073136000BFE3
:10058C00114B1B6803F00073002BF9D0114B40F298
:10059C0005721A600C4A0C4B9B6823F003039360A2
:1005AC00094A094B9B6843F00203936000BF064B5A
:1005BC009B6803F00C03082BF9D100BF0C37BD4628
:1005CC005DF8047B704700BF00380240042D4007E3
:1005DC0000700040003C024080B500AF00F084F990
:1005EC0000F0ECFB032000F0A5FA62B6022000F04C
:1005FC00EFFA4FF4FA7000F05FF9022000F01AFBEA
:10060C004FF4FA7000F058F9F0E7000080B400AF36
:10061C00104B5B6803F02003202B16D10D4B3D22B1
:10062C00DA6000BF0C4B9B8A9BB203F004039BB2B5
:10063C00042BF7D1094B02221A70074A064B1B8870
:10064C009BB243F400739BB2138000BFBD465DF8B0
:10065C00047B704700600240005C004030000020CA
:10066C0080B400AF0D4B1B6803F40013B3F5001FEF
:10067C000ED10A4B4FF474129A60094B01221A7076
:10068C00084A084B1B889BB243F400739BB213803F
:10069C0000BFBD465DF8047B704700BF00600240A0
:1006AC0030000020005C004080B400AF054A054BD0
:1006BC005B6943F00203536100BFBD465DF8047BE8
:1006CC00704700BF003C014080B400AF054A054BA9
:1006DC005B6943F00403536100BFBD465DF8047BC6
:1006EC00704700BF003C014080B400AF064B5B6814
:1006FC0003F02003202B02D1034B3D22DA6000BF14
:10070C00BD465DF8047B70470064024080B400AFC6
:10071C000A4B1B6803F00063B3F1006F09D1074B60
:10072C004FF074629A60064B01221A70054B02223C
:10073C001A8300BFBD465DF8047B7047006402401D
:10074C00310000200008024080B400AF084B1B6849
:10075C0003F02003202B05D1054B3D229A60054B5D
:10076C0001221A7000BFBD465DF8047B704700BFC4
:10077C00006002403300002080B400AF074B5B6880
:10078C0003F00063B3F1006F03D1044B4FF07462BC
:10079C00DA6000BFBD465DF8047B70470060024024
:1007AC0080B400AF0F4B1B889BB203F48073B3F57E
:1007BC00807F12D10B4A0B4B1B889BB223F48073A6
:1007CC009BB21380074A074B1B889BB223F0200374
:1007DC009BB21380044B01221A7000BFBD465DF81A
:1007EC00047B7047005000403200002080B483B07E
:1007FC0000AF03463960FB7197F90730002B0BDA19
:10080C000D49FB7903F00F03043B3A68D2B2120195
:10081C00D2B20B441A7609E0084997F907303A68C6
:10082C00D2B21201D2B20B4483F8002300BF0C37B2
:10083C00BD465DF8047B704700ED00E000E100E090
:10084C0080B582B000AF78607B68013BB3F1807FEC
:10085C0001D301230FE00A4A7B68013B53600F214F
:10086C004FF0FF30FFF7C2FF054B00229A60044B9C
:10087C0007221A60002318460837BD4680BD00BF0A
:10088C0010E000E080B400AF044B1B680133034A56
:10089C00136000BFBD465DF8047B70473400002038
:1008AC0080B400AF034B1B681846BD465DF8047B53
:1008BC00704700BF3400002080B485B000AF786072
:1008CC00084B1B68FB6000BF064B1A68FB68D21A0A
:1008DC007B689A42F8D300BF1437BD465DF8047BA1
:1008EC00704700BF3400002080B582B000AFFFF726
:1008FC007BFD0C4B1B680C4A934200D0FEE7094B66
:10090C001B680A4AA2FB03239B091846FFF798FFB2
:10091C0078607B68002B00D0FEE700BF0837BD462F
:10092C0080BD00BF000000200095BA0AD34D6210B4
:10093C0080B400AF134B1B6803F00203022B0AD1E7
:10094C00104BDB6C9AB2104B1A800E4A0D4B9B6805
:10095C0043F0804393600B4B1B6803F00403042BA0
:10096C000AD1084BDB6B9AB2084B1A80054A054B2F
:10097C001B6823F00403136000BFBD465DF8047BC5
:10098C00704700BF00200140380000203A000020D2
:10099C0080B582B000AF00237B60124A114B5B69BB
:1009AC0043F001035361FFF77BFF38600E4B0322CA
:1009BC001A700CE0FFF774FF78607A683B68D31A02
:1009CC0040F6B732934202D9074B01221A70074BFB
:1009DC001B6903F00103012BECD000BF0837BD46A7
:1009EC0080BD00BF003C01403C00002000000240E4
:1009FC0080B400AF084B1B6803F02003202B05D1FB
:100A0C00054B3D229A60054B01221A7000BFBD4672
:100A1C005DF8047B704700BF006402403D0000207D
:100A2C0080B400AF094B5B6803F40013B3F5001FEF
:100A3C0006D1064B4FF47412DA60054B01221A7082
:100A4C0000BFBD465DF8047B704700BF00600240EC
:100A5C003E00002080B400AF094B1B889BB203F012
:100A6C001003102B07D1064B9B88064A054B1B68BD
:100A7C0023F00103136000BFBD465DF8047B704793
:100A8C00001001408864024080B400AF074B5B68E3
:100A9C0003F00063B3F1006F03D1044B4FF07462A9
:100AAC00DA6000BFBD465DF8047B7047006402400D
:100ABC0080B483B000AF1A4B5B6803F40063B3F5EA
:100ACC00006F27D1174B5B68DAB26FF07F039B1A6C
:100ADC00DAB2154B1A7000237B600BE0134A7B686B
:100AEC0013441978124A7B6813440A461A707B68BF
:100AFC0001337B600C4B1B781A467B689A42EDDC09
:100B0C00074B4FF47462DA60064A064B1B6843F0DD
:100B1C000103136000BF0C37BD465DF8047B7047C2
:100B2C00006402408864024040010020C0000020A4
:100B3C004000002080B483B000AF0346FB71FB790A
:100B4C00032B00D038E01F4A1E4B1B6B43F04003B5
:100B5C0013631D4A1C4B1B6823F0705313601A4A15
:100B6C00194B1B6843F0A0531360174A164B5B6874
:100B7C0023F4C0435360144A134B9B6843F07053E7
:100B8C009360104A0F4B5B6C43F4804353640F4AE1
:100B9C000E4B1B6A43F00103136200BF0B4B1B6A25
:100BAC0003F48073B3F5807FF8D1074A064BDB68FA
:100BBC0023F07053D36000BF00BF0C37BD465DF807
:100BCC00047B704700380240001802400038014096
:100BDC0080B483B000AF0346FB71FB79032B1ED8A6
:100BEC0001A252F823F000BF050C1E08230C1E08AE
:100BFC000F0C1E08190C1E080C4B4FF400521A83D4
:100C0C000EE00A4B4FF480421A8309E0074B4FF475
:100C1C00C0421A8304E0064B01221A6000E000BFB8
:100C2C0000BF0C37BD465DF8047B704700180240CE
:100C3C00B402434280B483B000AF0346FB71FB792E
:100C4C00032B1ED801A252F823F000BF690C1E081A
:100C5C00870C1E08730C1E087D0C1E080C4B4FF4E1
:100C6C0000525A830EE00A4B4FF480425A8309E03B
:100C7C00074B4FF4C0425A8304E0064B00221A6023
:100C8C0000E000BF00BF0C37BD465DF8047B704729
:100C9C0000180240B402434280B483B000AF034654
:100CAC00FB71FB79022B0BD0032B10D0002B00D047
:100CBC0014E00D4A0C4B5B6983F4005353610DE057
:100CCC00094A094B5B6983F48043536106E0064A89
:100CDC00054B5B6983F4C043536100BF00BF0C3705
:100CEC00BD465DF8047B70470018024080B485B0A7
:100CFC0000AF78607B6803F00703FB600C4BDB688C
:100D0C00BB60BA684FF6FF031340BB60FB681A0266
:100D1C00BB68134343F0BF6343F40033BB60044A26
:100D2C00BB68D36000BF1437BD465DF8047B7047C9
:100D3C0000ED00E080B483B000AF0346FB710949BD
:100D4C0097F907305B09FA7902F01F02012000FACB
:100D5C0002F241F8232000BF0C37BD465DF8047B3E
:100D6C00704700BF00E100E080B483B000AF0346E1
:100D7C003960FB7197F90730002B0BDA0D49FB79C1
:100D8C0003F00F03043B3A68D2B21201D2B20B4407
:100D9C001A7609E0084997F907303A68D2B212017D
:100DAC00D2B20B4483F8002300BF0C37BD465DF86C
:100DBC00047B704700ED00E000E100E080B500AF7F
:100DCC000320FFF793FF00214FF0FF30FFF7CCFF1C
:100DDC0001210620FFF7C8FF01210B20FFF7C4FFFC
:100DEC0001210D20FFF7C0FF01210F20FFF7BCFFF1
:100DFC0001211120FFF7B8FF01212F20FFF7B4FFCD
:100E0C0001213820FFF7B0FF01213B20FFF7ACFF99
:100E1C0001213C20FFF7A8FF01214420FFF7A4FF8C
:100E2C0001214620FFF7A0FF01212520FFF79CFFA1
:100E3C0001213520FFF798FF01211E20FFF794FFB9
:100E4C0001212C20FFF790FF01212D20FFF78CFFB3
:100E5C0001211220FFF788FF0620FFF76BFF0B2004
:100E6C00FFF768FF0D20FFF765FF0F20FFF762FF0C
:100E7C001120FFF75FFF2F20FFF75CFF3820FFF7F3
:100E8C0059FF3B20FFF756FF3C20FFF753FF442050
:100E9C00FFF750FF4620FFF74DFF2520FFF74AFFD5
:100EAC003520FFF747FF1E20FFF744FF2C20FFF7EC
:100EBC0041FF2D20FFF73EFF1220FFF73BFF00BF45
:100ECC0080BD000080B500AF064A064B1B8A9BB262
:100EDC0023F001039BB213820020FFF7DDFE00BF5D
:100EEC0080BD00BF0008004080B500AF134B1B8ACB
:100EFC009BB203F001039BB2012B0AD10F4A0F4B9B
:100F0C001B8A9BB223F001039BB213820220FFF7D2
:100F1C00C3FE0A4B1B8A9BB203F040039BB2402BCF
:100F2C000AD1064A054B1B8A9BB223F040039BB2A5
:100F3C0013820020FFF7B0FE00BF80BD000401400B
:100F4C0070B50D4E0D4CA41BA4100025A54209D163
:100F5C000B4E0C4C00F018F8A41BA4100025A54255
:100F6C0005D170BD56F8253098470135EEE756F897
:100F7C00253098470135F2E7AC0F1E08AC0F1E0860
:100F8C00AC0F1E08B00F1E08F8B500BFF8BC08BCAB
:100F9C009E467047F8B500BFF8BC08BC9E4670472B
:040FAC00D1011E0849
:040FB000AD011E0869
:100FB4000095BA0A000000000000000001020304CA
:040FC400060708090B
:04000005081E01EDE3
:00000001FF
